:020000041000EA
:1000000000B5324B212058609868022188439860DF
:10001000D860186158612E4B002199600421596104
:100020000121F02299502B49196001219960352056
:1000300000F044F80222904214D00621196600F024
:1000400034F8196E01211966002018661A6600F04E
:100050002CF8196E196E196E052000F02FF8012189
:100060000842F9D1002199601B49196000215960AB
:100070001A491B48016001219960EB211966A021F2
:10008000196600F012F800219960164914480160C1
:100090000121996001BC002800D000471248134993
:1000A000086003C880F30888084703B5996A0420EC
:1000B0000142FBD001200142F8D103BD02B5186610
:1000C0001866FFF7F2FF186E186E02BD00000240BE
:1000D000000000180000070000035F00212200005C
:1000E000F4000018222000A00001001008ED00E03C
:1000F000000000000000000000000000070B8FD58A
:1001000000040420C5020010C1A40010C7020010A2
:10011000C7020010C7020010C7020010C70200107B
:10012000C7020010C7020010C7020010C70200106B
:10013000C7020010C7020010C7020010C70200105B
:1001400005B400103DB4001075B400109DB400104B
:10015000FDB400104DB80010C7020010C702001017
:10016000C7020010C7020010C702001091B20010B1
:10017000C5B20010C7020010C702001079A5001018
:1001800099A50010C7020010C7020010C702001096
:10019000C7020010C7020010C7020010C7020010FB
:1001A000C7020010C7020010C7020010C7020010EB
:1001B000C7020010C7020010C7020010C7020010DB
:1001C00072B62C4880F308882B4880F309880220F7
:1001D00080F31488BFF36F8F28482949086009F01D
:1001E00023FD09F0AAF827482749224A914202DA5A
:1001F00008600431FAE725491F4A914202DA086093
:100200000431FAE72249234A234B14469A4204DA7E
:100210000868106004310432F8E719490C601F497E
:100220001F4A204B9A4204DA0868106004310432F5
:10023000F8E700201C491D4A914202DA08600431A7
:10024000FAE709F0F3FC08F021FE194C194DAC4215
:1002500003DA216888470434F9E702F0ABFE164C54
:10026000164DAC4203DA216888470434F9E7144993
:100270000847000000040420000C042000010010C6
:1002800008ED00E0555555550000042000040420F9
:100290000001001000010010C001001038F800102B
:1002A00000000020C40E0020C80E002004350020ED
:1002B000C0010010C0010010C0010010C0010010FA
:1002C0002B9C00107CE700F000F8FEE7F0B54446F8
:1002D0004D4656465F46F0B46B46CB60C3689D46BC
:1002E000F0BCA046A946B246BB46F0BD0AF067F98D
:1002F00062B6281CA04700200AF011F8FEE709F0BA
:1003000037FF024A024B1360FEE7C04604ED00E0EF
:100310000000008002B471464908490009564900AE
:100320008E4402BC7047C04602B471464908490079
:10033000095C49008E4402BC7047C04603B4714654
:10034000490840004900095E49008E4403BC7047DB
:1003500003B47146490840004900095A49008E44D7
:1003600003BC70477047C046844608006146FFE7FB
:100370001FB50DF0DAF8002801D40021C8421FBDD6
:1003800010B50DF06FF84042013010BD10B50DF002
:10039000CCF8002801DB002010BD012010BDC046B4
:1003A00010B50DF0C2F8002801DD002010BD0120BD
:1003B00010BDC04610B50DF07AF8002801DC002011
:1003C00010BD012010BDC04610B50DF070F800281A
:1003D00001DA002010BD012010BDC0461C21012300
:1003E0001B04984201D3000C10391B0A984201D318
:1003F000000A08391B09984201D30009043902A2F6
:10040000105C40187047C04604030202010101015C
:1004100000000000000000001300020010B50A43B5
:1004200004000120032A0AD8092B08D80A224A43CB
:100430002821614352180248D2185200105A10BDA8
:1004400006EC0010F822411EFF39030030B50020F1
:100450005201914217D28022802480219200D80537
:100460001A40C00FE4000901DD040DD50001002A87
:1004700001D020221043234201D0402210430B42DE
:1004800001D08023184330BD002A01D0022210433E
:10049000234201D0042210430B42F4D00823F1E799
:1004A00010B50C00FFF7CEFFA04710BD0300E03BE6
:1004B00010B50400072B02D90549002800D10549D1
:1004C0002000FFF7EDFFE0B200F07AFA10BDC04661
:1004D000050B0010E50A001010B50400C0B200F0D2
:1004E000A9FA2300E03B072B02D90449002C00D1D4
:1004F00003492000FFF7D4FF10BDC046150B0010C4
:10050000F50A0010012070470120704710B5FFF771
:10051000FBFF10BD0120704701207047012070478C
:1005200010B5FFF7FBFF10BD7047704710B5FFF720
:10053000FCFF10BD012070477047704713B5019153
:1005400010496B4609780090002915D15B79002B82
:100550000DD0002A0BD000F04FFF040001000098DE
:1005600000F022FF2000009902F08AF916BD0098E1
:1005700000F02EFF0400F5E7009800F03DFF009921
:10058000F2E7C046D00E002010B5030000890A0033
:10059000002806D158881988000408439988FFF775
:1005A000CDFF10BD10B504000121FFF7EDFF2100C4
:1005B000FFF7A8FF002803D100200123184010BD39
:1005C00001212000FFF7E0FF2100FFF79FFF002837
:1005D000F2D001212000FFF7D7FF210006F028FA12
:1005E000EBE770B500210400FFF7CEFF0500210006
:1005F000FFF79AFF28002100FFF798FF70BD012345
:10060000834010B5D8B200F020FE10BD10B5040034
:100610000120A040C0B201F0F5FE2000FFF7EFFF7F
:1006200010BD0120704710B5FFF7FBFF10BD0000A3
:1006300070B5040000F088FA07F072FA08F008FCC0
:100640000022032105000B4802F0AAFF2000FFF75B
:1006500071FF2000FFF7E7FF280008F069FBF92889
:1006600002D902F03BFE70BDFA20800009F05FFE67
:10067000F2E7C0466407002010B50120FFF7D8FF5D
:1006800008F0FAFB10BD10B50020FFF7D1FF08F00D
:10069000E5FB10BD70B504000D0007F0B7FF0028A2
:1006A00004D001212800FFF76FFF0400290020007B
:1006B00007F0F8FB002800D199E02900200007F09E
:1006C0004BFC002800D192E02900200002F096FDAA
:1006D000002800D18BE029002000FFF71DFF002833
:1006E00000D184E029002000FFF71AFF00287ED007
:1006F0002900200008F0BEF8002878D0290020004A
:1007000004F0EAFE002872D02900200002F07EFCEE
:1007100000286CD02900200007F0AEFA002866D02F
:100720002900200005F0CCFE002860D02900200020
:1007300006F0FCFE00285AD02900200007F084FFB4
:10074000002854D02900200005F05CFD00284ED080
:100750002900200007F0C4FE002848D0290020000E
:1007600007F0D2F8002842D02900200006F0CCFD86
:1007700000283CD02900200003F0CAFC002836D015
:100780002900200003F014FD002830D029002000AB
:1007900007F0D4FF00282AD02900200002F07AF9BF
:1007A000002824D02900200007F00AF800281ED0D5
:1007B0006B79002B0CD0144B9C421FD00CD8134BE0
:1007C0009C4218D0124B9C4213D0033B9C420CD04D
:1007D0002800FFF79FFE0BE00E4B9C4211D00E4B02
:1007E0009C42F5D101F0ACFDF2E7FFF745FF002098
:1007F00070BD01F0F3FDFFF746FFF8E701F0ACFD37
:10080000E6E701F0AEFDE3E75A7C0000017C000062
:10081000037C00005B7C00005C7C000010B50400E1
:100820000121FFF7B1FE2100FFF734FF10BD10B525
:10083000FFF782FE08F05FFA03F0FEFF00F03CF8DD
:1008400002F04CFD012004F003F910BD10B500F0DA
:1008500038F8002004F0FCF8FFF76FFE08F050FABB
:1008600010BD03000020002B00D170475A1E01303C
:100870001340C0B2F7E70423020901D113000200BC
:10088000910802D00A000233DBB252089818C0B2B5
:10089000704701207047704770B5051CFFF7F9FFDE
:1008A000041E02D0281CFFF7F6FF200070BD704721
:1008B00010B5FFF7F1FF10BD10B50020FFF7F8FFEE
:1008C00010BD10B508F0E6F8FFF7F2FF10BD00000C
:1008D00010B508F0DFF8074B04001A78824207D001
:1008E000187008F077FA044B18602000FFF7E0FF5B
:1008F00010BDC046C80E0020CC0E002070B586B0DA
:100900000C0A0191C9B26D460090E4B200293ED0B4
:1009100000220199FFF712FE214A002C06D0002187
:10092000204B1080197001F0B9FB05E01388834259
:1009300002D101221B4B1A70042612203200002122
:1009400068440DF0C5F9009B03AC0393AB88A3800A
:10095000154B5B78334210D0144B5B88002B0CD0C6
:1009600001F040FB002802D0022001F0B9FC01F0A8
:1009700015FB002801D001F025FC2379002B09D1BB
:1009800003986168A26801F085FA06B070BD002C7A
:10099000D2D0C8E72000FFF705FE0028F0D1F4E729
:1009A000D40E0020D60E0020B83100209A3300204B
:1009B000037910B5012B02D1008800F03FFD10BD76
:1009C00010B5041E11D0031FDBB2A02B0ED808F007
:1009D000C9F8002804D0200008F002F901F04AFC10
:1009E000200008F0F3F801F045FC10BD03002033AF
:1009F000DBB2072B07D80723034001209840C0B281
:100A000001F01AFBEFE703005B33DBB2022B04D8E3
:100A1000243CA0B208F056F8E7E75834E4B21A2CA8
:100A2000E3D8034B6400E05A08F066F8DDE7C046FF
:100A300046ED001010B5002807D0031FDBB2A02B35
:100A400004D808F0CDF801F015FC10BD03002033E8
:100A5000DBB2072B07D807231840063B8340D8B2E8
:100A600001F0F2FAEFE703005B33DBB2022B03D8AD
:100A7000002008F027F8E8E75830C0B21A28E4D878
:100A8000002008F039F8E0E770B504000D00FFF72A
:100A900097FF0120002D0ED000230A4A28000021D4
:100AA0000EF06AF80023084A80185941FA22002300
:100AB00092000EF079F809F03AFC2000FFF7BAFF37
:100AC00070BDC04640420F00E703000010B5044B64
:100AD000392803D1198CFFF7D7FF10BDD98BFAE75E
:100AE0009A33002010B5002803D001F0A5FA01F0D8
:100AF000C1FB10BD10B5002803D001F0A5FA01F02C
:100B0000B9FB10BD10B5002803D001F0B1FA01F017
:100B1000B1FB10BD10B5002803D001F0B1FA01F00F
:100B2000A9FB10BD10B5002007F0CCFF002007F096
:100B3000E3FF01F0B3FA01F09DFB10BD10B508F022
:100B400059F8FFF7EFFF10BD10B501F085FAFFF778
:100B5000F5FF10BDC2B20004000F062818D00F2305
:100B600006280ED80E3003400020012B08D80120A3
:100B7000F02A05D007D80020E72393424041C0B2B5
:100B800070470630EFE7F43A100043425841F6E769
:100B90001000F13843425841E721002391425B4164
:100BA0001843EDE70279030010B5101E06D018892E
:100BB000002804D001F078FDFFF7CCFF10BD1888A5
:100BC00000F03CFCF8E70000F0B587B00622019089
:100BD0000C1C010004A80DF0D3F8019B27045D79DB
:100BE0009B791B09009301F017FA0290002828D086
:100BF0000295002D25D03B0E0F221900914340296C
:100C000010D0E1B20A0000202032D2B20290072AAE
:100C100017D91F229343202B04D1012911D9009BFE
:100C200083420ED00022A34B02925B785B0708D56B
:100C3000022001F055FB01F0EFF901234340DBB244
:100C400002933B0F03930B2B7BD81800FFF780FB1D
:100C50000C000C003D003D001D0179007900790079
:100C60003E019C01AD01AD012605360F3F0E0F2F51
:100C700000D93601E7B2002D12D0002E0BD03B0078
:100C80002033DBB23000072B01D9002F05D101F052
:100C9000D3F901F0EFFA380051E001F0E9F9F8E793
:100CA0003800FFF7C7FE002E4BD03B002033DBB2ED
:100CB0003000072B01D9002F02D101F0C5F901E066
:100CC00001F0DEF901F0D6FA3BE00F2326053F0ED6
:100CD000360F9F43202F00D03601E7B2002F20D0DF
:100CE000012F00D1A1E0009B002D00D1ADE0002B31
:100CF00065D0019A019B50881B8800049188184395
:100D00000022FFF71BFC019904F000FF0028C2D06D
:100D1000019B9B79DA07BED50F221340019A93718C
:100D20004DE0644B5B785B0744D4002D3BD0002E34
:100D300004D0300001F080F901F09CFA0020FFF7A8
:100D40003FFE039B083B032B05D807F0A3FEFFF7EC
:100D5000AFFD00230293201CFFF7FCFE002809D002
:100D6000002D00D1C6E1009B002B00D1BAE100228A
:100D7000514B1A70029B002B13D001F02BF9012369
:100D800002001A4018420CD1019B5A7101F01CF963
:100D900000F09AFA019800F005FA01F015F900F058
:100DA0009FFA07B0F0BD2800FFF744FE002EC8D020
:100DB000300082E7009B002D1DD0002B03D13000B6
:100DC000FFF790FEBDE7009B012B03D1300001F03F
:100DD000B3F9B6E7394B1B7F012BB2D9009A934286
:100DE000AFD13000FFF77EFE300001F0BBF93000DC
:100DF00001F07EF9A5E7002B09D13000FFF77AFE5C
:100E0000300001F0AFF9300001F082F999E72B4B87
:100E10001B7F012B95D9009B012B00D091E701F09E
:100E200005F9064200D18CE7E7E7254B009ADB7F06
:100E3000002D03D09A4200D983E7C0E79A4200D33D
:100E40007FE73000FFF756FE7BE7002BF9D01B4B06
:100E5000392F18D1188C00280ED000232900194AE8
:100E60000DF08AFE0023184A80185941FA22002307
:100E700092000DF099FE00E0012009F058FA3800C8
:100E8000FFF7D8FD5DE7D88BE5E72005800F0AD096
:100E9000012800D055E70020854201D0A005800D33
:100EA00007F02AFE4DE7002D01D0A005800D07F0C8
:100EB00009FE46E7B8310020D60E00209A33002004
:100EC0009D33002040420F00E7030000BF01BF0F29
:100ED00028D1002D00D034E7102123065B0F9B00A2
:100EE0002207DBB2120F9A400800D2B22040214202
:100EF00003D00F209840C043C0B223059B0F10437E
:100F0000022B09D0032B0AD0012B02D000F0ACF940
:100F100017E700F09FF914E700F0B0F911E700F0CF
:100F200094F90EE7A3059B0FDAB2002D1FD0DB0763
:100F300000D406E7102123065B0F9B002207DBB2DB
:100F4000120F9A400800D2B22040214203D00F2055
:100F50009840C043C0B223059B0F1043022B0DD015
:100F6000032B0ED0012B06D000F0DCF9E9E6012AB4
:100F700000D8E6E6DEE700F0CBF9E2E600F0DCF9C7
:100F8000DFE600F08BF9DCE62605E7B2360F002D30
:100F900004D0300000F098F9380011E73800FFF76E
:100FA000A9FD300000F09CF9CBE6E6B23000F03845
:100FB00004286CD8FFF7B8F90329141B2500654BEA
:100FC000009ADB7F002D07D09A4200D3B9E6E004F7
:100FD000C00E00F091F9B4E69A4200D9B1E6F6E706
:100FE000E004C00E002DDDD100F06EF9A9E6002D61
:100FF00004D0E004C00E00F060F9A2E600F058F959
:101000009FE6554B5B785B0704D4E004C00E002DCF
:10101000C8D0E9E7514E337F012B25D9002D16D0DA
:1010200000F0D8FF042808D101F04CF9E004C00E0C
:1010300000F056F90023029383E6337F009A93422F
:10104000F8D90321E004C00E01F01EF9F2E7009A7E
:10105000934205D801F036F9E0040421C00EF3E70D
:10106000012001F03DF9E5E7002D05D0E004032162
:10107000C00E01F009F964E6012001F031F9009B8E
:10108000012B00D85DE6022001F02AF959E6009B09
:10109000002D06D03000002B00D050E6E004C00E3A
:1010A000A2E7002B1BD02D4B392E16D1188C00280F
:1010B0000ED0002329002A4A0DF05EFD0023294AA4
:1010C00080185941FA22002392000DF06DFD00E0D6
:1010D000012009F02CF93000D2E6D88BE7E7E004D4
:1010E000C00E5FE7204C214B22781A7000F09EFF63
:1010F00020703FE62A0005990498FFF71FFA0600C2
:1011000000F094FF009B0500002B05D00022184B37
:101110001A70154B1D702DE6164B1888B042F8D189
:10112000019904F001FD0028F0D0114B1B78002B31
:10113000ECD00E4E3078FFF7D5FC012009F0F7F81F
:10114000E0B2FFF7C3FC012009F0F1F83078FFF7B7
:10115000D1FCDBE79D330020B83100209A3300201A
:1011600040420F00E7030000D10E0020D20E002005
:10117000D60E0020D40E002070B50400008900288F
:101180000BD001F091FA051C00F0E0F800F05CF8DB
:10119000291C2000FFF718FD70BD6079218800F040
:1011A00057F9F0E7037910B50400002B14D000F0D4
:1011B000BFFA2000FFF732FB00280ED100F02CFF11
:1011C000002809D06379002B06D0074B5B785B07BA
:1011D00002D5022001F084F810BD2000FFF7CCFFFB
:1011E0002000FFF7FEF9F7E7B8310020A023DB016C
:1011F000984204D280239B01984208D27047054B45
:10120000C318FF2BFAD8044BC318062BF6D9C0B26B
:10121000F4E7C04600AAFFFF10A9FFFF82B002B0AA
:10122000704784B004B07047704710B5FFF7FCFFFB
:1012300010BD704710B5FFF7FCFFFFF7F6FF014B3D
:10124000187010BDE70E0020704710B5FFF7F2FFD1
:1012500010BD000010B5034B1B781843FFF7EAFFE1
:1012600010BDC046E70E002010B5034B1B78184098
:10127000FFF7E0FF10BDC046E70E002010B5034B9E
:101280001B785840FFF7D6FF10BDC046E70E002080
:10129000704710B5FFF7FCFF10BD704710B5FFF7A2
:1012A000FCFFFFF7F6FF014B187010BDE60E0020A3
:1012B00010B50020FFF7F2FF10BD0123834010B5E9
:1012C000D8B2FFF7EBFF10BD0123834010B5034AEE
:1012D00010781843C0B2FFF7E1FF10BDE60E002002
:1012E0000123834010B5034A10789843FFF7D6FFD7
:1012F00010BDC046E60E00200123834010B5034A0E
:1013000010785840C0B2FFF7C9FF10BDE60E0020AC
:1013100010B5034B1B781843FFF7C0FF10BDC04644
:10132000E60E002010B5034B1B781840FFF7B6FF00
:1013300010BDC046E60E002010B5034B1B78584088
:10134000FFF7ACFF10BDC046E60E00207047032338
:1013500070B50126CC086343D21807233500194025
:101360008D400021EDB20300CB40545C33405B4222
:1013700063402B405C40545401310329F3D170BDCC
:1013800030B50724032300220440C008434301254D
:101390001000C9188B5CE3402B4093400132184386
:1013A000C0B2032AF6D130BD13B584B201AB1880A8
:1013B000240A0800032C08D81B78092B05D80A2119
:1013C0006143024A5918FFF7C2FF13BDD70E002030
:1013D00007B582B201AB1880120A0020032A08D890
:1013E0001B78092B05D80A30504302491818FFF71B
:1013F000C7FF0EBDD70E0020F7B5072401270D4A01
:101400000D4B12781B7801AE1A4330800092009B7E
:1014100023413B4204D1013CF9D200252800FEBD06
:10142000E5B22800316801F04BFA80B20128F2D011
:10143000F4E7C046E60E0020E70E002007B501AB3A
:1014400018800198FFF7D8FF019901F039FA0EBD15
:1014500013B501AB19800E4B1B78002B03D00198FC
:10146000FFF7ECFF16BD00280CD00198FFF7C4FF72
:10147000040001000198FFF797FF2000019901F097
:101480001FFAEFE70198FFF7A3FF0400F5E7C04656
:10149000D00E002030B50400012005008D40290049
:1014A0000500954098402A00030020000A43D1B26D
:1014B000984322408A4201D11C43E0B230BD000073
:1014C00010B504001300044A10780A002100FFF749
:1014D000E1FFFFF7E3FE10BDE60E0020044B1A7893
:1014E0000023934200DB704701335BB2F9E7C0464B
:1014F000480F002070B50A2507260C4B1C780C4BB2
:101500001B78A34200D170BD2A006243094B01340D
:10151000D15A9B1858889A8800040843D9883440C7
:10152000090411431A89FFF77CFEE8E7E80E002062
:10153000E90E0020EA0E0020064B10B558881A88E4
:10154000D988000410439A88090411431A89FFF7C7
:1015500068FE10BD3A0F002073B5094D01AE2C781E
:101560003080072C02D9FFF7EFFA0024054863000A
:1015700031000222C01801340CF002FC2C7073BD43
:10158000480F0020490F0020F7B501AE30801B4DF9
:101590002B7800931A4B009A1B7893422CD00A2484
:1015A000009B184F5C43E4196379002B0DD0200099
:1015B000FFF7F8FA002808D00F23A27920881A40F4
:1015C00001331343A371FFF7C7FF2000FFF7EAFDC4
:1015D00007222B78013313402B700A23009A70786E
:1015E0005A43BB1859788842D1D13178BA5C9142BC
:1015F000CDD15B79002BCAD0F7BDC046E80E0020E4
:10160000E90E0020EA0E0020F7B5072701900E48EA
:101610000E4B00781B7800900D48009CA34201D12E
:101620000020FEBD0A255D43441966788E4206D12E
:101630002D5C019EB54202D16479944202D10133FE
:101640003B40EAE70120ECE7E90E0020E80E00202D
:10165000EA0E0020F8B51D4CA3790F2B31D8637921
:10166000002B2ED01A4B1E781A4B1B78B34228D071
:101670000A257543184BED182B79002B22D02A88A8
:1016800023889A421ED1697900291BD16F8863880B
:101690002000FF1AFEF778FF2100BFB203F0F6FE2C
:1016A00087420FD20F211022A37920000B40134351
:1016B000A371AB790B401A43AA71FFF773FDFFF7D3
:1016C00019FFF8BD072301361E40CDE73A0F002071
:1016D000E80E0020E90E0020EA0E00200A2281B266
:1016E000090A4A43034BC0B29B18185C82B002B08F
:1016F0007047C046DEEB001070B503790D00012B7A
:1017000001D0012070BD0B79012BFAD10088FFF7C1
:10171000E5FF04002A28F4D02888FFF7DFFF030044
:10172000201A2A3B421E90415A4253411843E9E78E
:1017300010B500210400FEF727FF0300A0790F2851
:101740000CD82249224A09781278914234D1214A90
:101750005179002902D092790F2A2DD96279002A75
:101760000BD1A022D20193421BD28022920193423C
:1017700029D2E72B0AD8DF2B1ED8174A138062889C
:10178000164B1A800022164B1A7015E0F8215A1ECB
:10179000FF3A92B249018A42EFD2DAB2002AECD182
:1017A0000AE0104A934208D85F3A934204D20E4AA4
:1017B0009A1892B21F2AE0D810BD0C4A9A1892B219
:1017C000012ADAD8F8E70F28D7D8F5E7E80E002085
:1017D000E90E00203A0F0020460F0020440F0020A1
:1017E0007C070020DF520000E0ADFFFF8983FFFF90
:1017F00010B5040000F01AFC9D23184212D12000FD
:10180000FFF7F4FC1D2809D803238342804140429E
:1018100010BD0548D84001231840F9E72C3883B2A1
:101820000C2BF6D90020F3E7811C00001D4A0B00A9
:10183000117870B50400002901D0002070BDFA268F
:1018400045887600ED1AADB2B542F6D2FEF79CFEA1
:10185000C022154B9201C3189BB29342EDD2134B99
:1018600021001A8804F0B0F9031CB04200D9331CDF
:101870009BB2AB42E1D9608823880004A188184359
:10188000FFF7CCFC0F23A27920881A4001331343C1
:10189000A371FFF761FEFFF721FE2000FFF782FC36
:1018A0000120CBE77C07002000E0FFFF460F00206F
:1018B000F0B504008DB00100062207A80CF060FA14
:1018C000237867790293637801936388049323797B
:1018D0000393002F05D13800C04BC1491B789842B3
:1018E00025DBC04D2B79002B49D1039B002B00D168
:1018F0006AE2002F00D1BCE22000FFF753F9002874
:1019000000D1B6E2B84B20001988FFF78FFF0028FE
:1019100000D059E20A22210028000CF031FA2800F8
:10192000FFF746F8FFF796FEFFF706FE4CE242008F
:101930008D186D78019EB54203D1525C029DAA427A
:1019400002D0013040B2CAE7421CCAD00F22A579AA
:10195000C0B2154001322A43A27198420CD29F4A6C
:10196000013BDBB21370984206D240005B000818BE
:101970000222C9180CF004FAFFF7B0FDB1E700210C
:101980002800FEF701FE6B79049A00936B8806002D
:10199000D31A9BB20593009B002B00D116E20021C5
:1019A0002800FEF7F1FD290003F070FD059B984229
:1019B00000D8E5E1039B002B00D105E2AB79298833
:1019C00022880F2B00D9A8E191423CD12989228994
:1019D000914238D1002F36D10F221A4010231343E1
:1019E000AB71FFF7A9FD2800FFF7DCFBAB79A37112
:1019F0006E887E4D7E4B2C781B78A34206D00A233E
:101A00005C437C4BE4186379002B05D1FFF772FD32
:101A1000002528000DB0F0BD20006788FFF7C2F850
:101A2000002809D12000FFF7BDFB07222B783E00DC
:101A3000013313402B70DCE731002000FFF7F6FE86
:101A40000028F2D1E2E7C0226B4B9201F3189BB25F
:101A5000934273D2002F00D02AE13A0001990298F4
:101A6000FFF7D2FD002845D1002201990298FFF727
:101A7000CBFD002800D1E3E05A4D3000290004F0EE
:101A80003DF8002800D1DBE02800FFF78BFB0021A8
:101A90002800FEF779FD08270600544B1C78544BAC
:101AA00000951B78A3420DD00A226243514D0021BC
:101AB000551928000294FEF767FD6B790190002B01
:101AC00000D09BE0072F06D80A250726474C207830
:101AD000B84200D0AAE00798FFF756FDFFF7FEFCDA
:101AE000FFF708FD0A2200213E480CF0F1F8FFF74D
:101AF00023FD8DE739002000FEF746FD394D020039
:101B000023002900300004F051F80028ACD10F2345
:101B1000AA7928881A4001331343AB71FFF71CFDE3
:101B20002800FFF73FFB0A22390028000CF0D0F80C
:101B30000798FFF729FDFFF7D1FC67E7002F93D047
:101B40000123284A91790B439371264D30002900D7
:101B500003F0DCFF002800D15AE72800FFF722FB42
:101B6000234B224C019320781B78834200D1CEE096
:101B70000A2778431F4E8019FFF714F8002800D178
:101B8000C5E023783A0019007943280071180093C2
:101B90000CF0F6F80722009B013313402370FFF787
:101BA000A9FCFFF7C9FC0A250727019B20781B78B1
:101BB000834200D12AE768430E4E8019FEF7F2FFF8
:101BC000002800D022E7207868438019FFF7EAFA5E
:101BD000237801333B402370E7E7C046480F0020DD
:101BE000490F00203A0F0020440F0020E80E00208B
:101BF000E90E0020EA0E002000E0FFFFC022A14B0A
:101C00009201F3189BB2934200D35BE72B003000A4
:101C1000019A009903F0CAFF002800D13C00270078
:101C20000724029B019E01331C4038E76843964B12
:101C3000C018FFF7B7FA237801333340237045E724
:101C4000002201990298FFF7DFFC051E00D0DFE6B5
:101C50000798FFF7F3FBC3B200040F21020F032A1A
:101C600008D8012A0FD9000E014212D0A2790F2AFA
:101C70000FD8CEE606320A40012A10D92000FFF71D
:101C800091FA009DC5E6000E014202D0002B00D162
:101C9000BFE62033DBB2072B00D8BAE6EEE7EF2B26
:101CA00000D8B6E60F33DBB2022B00D8B1E6E5E789
:101CB0000127764D0021AB7920003B43AB71FEF745
:101CC00063FC230002002900300003F06FFF0028AE
:101CD00000D03AE7AB792000BB43AB71FEF762FF5F
:101CE000041E00D094E60F23AA7928881A40DB1935
:101CF0001343AB71FFF730FCFFF7F0FB2800FFF751
:101D000051FA0A22210028000BF0E2FF80E60A22A5
:101D1000002128000BF0DCFF43E791420FD1298915
:101D2000228991420BD1002F09D1A3712000FFF726
:101D300039FA0A22210028000CF022F8F4E52000EC
:101D4000FEF730FF002800D193E0002F00D190E093
:101D50004E4B9A791F2A0DD9198809A80180049938
:101D60004180197982710171002141711B890381C0
:101D7000FFF718FA0A22210044480CF001F8D1E5D7
:101D8000AB790F2B0AD807980899FFF747FA280074
:101D9000FFF708FA0A2200212800A6E6039A002A83
:101DA00012D0298822889142C9D129892289914259
:101DB000C5D1002FC3D12000A371FFF7F3F90A2288
:101DC000390028000BF084FF012522E60099280045
:101DD000FEF7DAFB290003F059FB059B98424CD92A
:101DE000039B002BF0D0002F43D02A8823889A42EF
:101DF00029D12A8923899A4225D16B88049A00998E
:101E0000D31A28009EB2FEF7BFFB290003F086FE1E
:101E1000864212D2AB79DA070FD40F2B0DD90F21DE
:101E20001A00A3718B43F02B00D17FE7D3B21A09BC
:101E3000013212010B40134377E70A2221001348B5
:101E40000BF09EFFC0E72000FEF7ACFE00280CD090
:101E50000F4B20001988FFF7E9FC00288AD00A22DE
:101E6000002128000BF034FF5EE50123AA7913431B
:101E7000AB712000FFF796F9A6E707980899FFF7DE
:101E8000CDF987E700E0FFFFEA0E00203A0F0020BF
:101E9000440F0020F0B589B001AC019020006160D2
:101EA000A260FFF705FD2379051E324E26D0002BD8
:101EB00004D001986168A268FFF7B3F92E4D33781A
:101EC0002878834207D00A2358432C4FC019FFF7C4
:101ED000EFFC002839D12379002B0DD128490B784C
:101EE000002B09D1274A638812889B1A264A9BB285
:101EF000934201D901230B7009B0F0BD210005AA5E
:101F000081C981C209881180002BD7D0072233787C
:101F1000194F591C11403A78009191420BD00A2276
:101F20005343164805A9C0180BF02AFF009B3370D5
:101F3000FFF7E0FAC2E7FEF707FE0A22290013487E
:101F400035703D700BF0C4FEB8E70A222B7853437E
:101F5000DA5BFB185888D988000410439A88090472
:101F600011431A89FFF75DF907222B7801331340DB
:101F70002B70A3E7E90E0020E80E0020EA0E0020F7
:101F80007C070020440F0020FE3F00003A0F002095
:101F9000014B18787047C046680F002070B50024C8
:101FA000074D6B88A34209D006F052FF054B1B88F2
:101FB000C01A6B8880B298426441E4B2200070BDC0
:101FC0009A330020660F0020014B1878C008704734
:101FD000640F0020024B1878072318407047C04652
:101FE000640F002010B506F033FF084B084A1B8829
:101FF0005288C31A9BB200209A4205D8054B187824
:1020000001234007C00F584010BDC046620F00209A
:102010009A330020640F0020034B187807231840E0
:10202000431E9841C0B27047640F0020014B1878DE
:102030007047C046750F0020024B1A781043187085
:102040007047C046750F0020024A1378834313700F
:102050007047C046750F00200022014B1A70704770
:10206000750F0020014B18787047C046740F002090
:10207000024B1A78104318707047C046740F002046
:10208000024A1378834313707047C046740F0020D0
:10209000014B18707047C046740F00200022014B9E
:1020A0001A707047740F0020014B18707047C046BB
:1020B000730F00200022014B1A707047730F00202D
:1020C000014B18707047C046720F00200022014B70
:1020D0001A707047720F0020014B18787047C04685
:1020E000690F0020704710B5FFF7FCFF10BD00001E
:1020F0000300190010B5054A10780140994203D039
:1021000018431070FFF7EFFF10BDC046680F0020A6
:10211000030010B5044A1078034203D098431070AE
:10212000FFF7E1FF10BDC046680F0020704710B5F3
:10213000FFF7FCFF10BD000070B5084D04002B78C0
:102140000340834209D006F083FE054B18802B78AC
:10215000200023432B70FFF7EAFF70BD690F0020BA
:10216000660F002010B5084C237818420BD083432B
:1021700000202370834201D006F06AFE034B1880D2
:102180002078FFF7D4FF10BD690F0020660F0020F4
:10219000094B70B55B7804005B070BD5074D2B78B6
:1021A000834207D006F054FE054B2C7018802000A7
:1021B000FFF7BDFF70BDC046B8310020690F002099
:1021C000660F002010B5054B1A78002A05D00020B4
:1021D0001870034B1880FFF7AAFF10BD690F00208D
:1021E000660F0020F8B51B4A1B4B14781B781B4F59
:1021F0001B4D1C433B782E68002B11D0194B5B887C
:10220000002B05D0FFF7CAFE002801D0FFF7DAFF48
:102210003B781C4306F096FC002801D0FFF7D2FF64
:10222000114B08221B789C43104B1B781C433470C5
:102230002C680F4D200029000BF02AFD002807D044
:102240000822210028000BF09BFD200006F02EFC48
:10225000F8BDC046750F0020740F0020690F0020E4
:10226000800700209A330020720F0020730F002097
:10227000590F002010B5FFF7B5FF10BD704710B51E
:10228000FFF7FCFF10BD00000B4B10B55B785B0740
:102290000ED5C300094C19432170FFF715F806F05D
:1022A000D7FD074B18802078C008FFF7E8FF10BD66
:1022B000FFF70AF8FBE7C046B8310020640F0020A2
:1022C000620F0020002010B5034B1870034B1880DC
:1022D000FFF7D5FF10BDC046640F0020620F00203D
:1022E00010B5094A13781900814311704A070AD1C1
:1022F000994208D0054B5B785B0704D5C808FEF708
:10230000EFFFFFF7DFFF10BD640F0020B8310020A2
:1023100003000A4810B542785107C90F99420BD003
:1023200001210B4003319B008A431A43427000F0A5
:1023300071F80220FFF7D4FF10BDC046B83100206D
:10234000044B10B5587801234007C00F5840FFF7E1
:10235000DFFF10BDB831002010B50120FFF7D8FF16
:1023600010BD10B50020FFF7D3FF10BD10B5002041
:1023700000F00CFC10BD10B5002000F001FCFFF7D0
:10238000F5FF10BD1FB500F097FB00F0A7FB002480
:102390006B4601A81C7100F0BCFB01200C4B1870AF
:1023A00000F0C2FBA0236A465B0103A8938100F002
:1023B000C8FB6B4602A81C7200F0D0FB02F0C2F80A
:1023C00006F03BFAFFF7D7FF02F0B0F81FBDC0469A
:1023D000E70E002010B5FFF7D5FF10BD10B500F0D7
:1023E00085FB10BD10B500F06DFB002801D006F094
:1023F000E9F910BD10B500F085FB10BD10B500F077
:102400008EFB10BD10B500F08FFB10BD10B500F0B5
:1024100091FB10BD10B500F094FB10BD10B500F09D
:1024200096FB10BD10B500F099FB10BD10B500F083
:102430009BFB10BD10B500F09DFB10BD10B500F06A
:10244000ABFB10BDF7B506F003FD094E0400338861
:1024500083420BD06D4600272F8006F0F9FCAF8039
:10246000688000980199FEF749FA3480F7BDC046AC
:10247000760F002010B506F0ADFC024B1860024B41
:10248000186010BD880F0020840F0020704770472F
:1024900010B5FFF7FCFF10BD704710B5FFF7FCFF4C
:1024A000FFF7F6FF10BD704710B5FFF7FCFF10BD3A
:1024B000704710B5FFF7FCFFFFF7F6FF10BD0120D6
:1024C0007047000010B5074800F06EFB01F083FB79
:1024D00002F04EFD03F06AFAFFF7D8FFFFF7DDFFC9
:1024E00010BDC046912A00100120704710B5FFF7BB
:1024F000FBFF10BD70477047704710B5FFF7FAFF3C
:10250000FFF7F9FFFFF7F8FF10BD000010B5FFF768
:1025100069FF002801D1FFF75DFF0848FFF76AFF58
:102520000748FFF773FF03F0A5FFFFF767FFFEF70C
:102530008CFE044B1878FEF7ACFE10BD8C0F00200B
:10254000B8310020E60E002010B506F03FFC06F082
:1025500083F900F0B3FCFFF7D9FFFEF7A8F900F00C
:10256000E9FE02F05BFAFFF7A4FF10BD70B5124C54
:102570002378002B06D1114D2888002811D106F0B0
:1025800067FC288005F014FB04F0B4FF06F0B2F8F5
:1025900004F0FCF903F0E4FD04F0B2F805F0B2F940
:1025A00070BD06F0C5FB96235B009842EAD901F0A6
:1025B00051F801232370E5E7820F0020800F0020EF
:1025C000F0B589B0FFF77BFF002809D1FFF73AFF8C
:1025D000FFF7CCFF02F030F9FEF77AF909B0F0BD51
:1025E00000F084FC2E4F00243D0020000134E4B2B2
:1025F0002E8800F0F5FA042C4FD002358642F4D034
:10260000284B1B789B0701D500F0F0FAFFF76EFF0F
:1026100000240590200000F0E3FA3B8803909842E4
:1026200033D043409BB204930023019301330293C0
:10263000029B049A13421BD01D00039B1D406B1E7E
:102640009D41059BEDB2002B0DD0019B06AE337072
:10265000747006F0FDFB012370803371757106986C
:102660000799FEF74BF92A002000019902F0ACF817
:10267000019B0133DBB20193029B5B009BB202938F
:10268000019B0A2BD4D1039B3B800134E4B2023777
:10269000042CBFD1FFF7EEFE9AE78642B0D195E752
:1026A000780F00208C0F002070B500F013F9A423E0
:1026B0000400DB0198424ED2A023DB01984200D3F4
:1026C0009FE0DF281CD8CC285BD8A7280AD8A428EC
:1026D00000D97AE0012831D0031F9BB2A02B2DD95D
:1026E00000242BE00300A83B9BB21A2BF8D85834E7
:1026F000544BE4B26400E35A8824E4011C431DE017
:102700008023DB0198421BD28026B601B04200D361
:1027100087E0E72812D9431EFF3B013EFF3E9BB2F4
:10272000B342DDD2000AC0B200F066F90500E0B2A3
:1027300000F0D0F82D023540284384B2201C70BD33
:10274000C0B200F0C7F8F0231B0123403E4C1843F1
:102750000443A4B2F2E7A523DB0198421DD23B4B10
:1027600098423BD83A4B98420DD83A4B984230D8D1
:102770000322C4B2A3081440023AA2405B01364CC3
:1027800013431C43E5E70321012201408A40C306AD
:102790005B0F5B01314C1343F3E7314B984208D890
:1027A0001F20304B20409C4222D82F4C0002044373
:1027B000C4E72E4BC3189BB21F2B00D990E7F82318
:1027C00004025B011C402A4B98E78023243CDB0178
:1027D000D7E71F230340274C1B028FE70321012269
:1027E00001408A40C3065B0F5B01234C1343C8E7DB
:1027F00000F002F9F823802400025B011840A401D4
:10280000D5E71F20204000F0F7F8E3051B0F1B025F
:1028100002B2C00602D5FF2112010A40174C134331
:10282000AFE7C004C00E00F0E7F80500E0B200F02A
:1028300051F8F8232D025B011D4005432E43B4B22D
:102840007CE7C0467CED001000A0FFFF5F52000057
:102850003F5200001F520000008DFFFF008CFFFF61
:10286000BF5200009F520000F4A0000040ADFFFFE7
:10287000F0A00000F1A00000008AFFFF0090FFFF21
:102880000D4B37B51C68002301AD29809C4208D14F
:10289000697823002A78F02905D1F02A01D1074B65
:1028A0001B8818003EBD0329FBD8092AF9D804F07B
:1028B000C1FA0300F5E7C046C02A00209433002087
:1028C00007B501AB19800199FFF7DAFFFFF7ECFEBE
:1028D0000EBD0000030010B5E7280AD8DF280AD88B
:1028E000312800D173E00FD8292866D02A2800D1DA
:1028F00074E0180010BDE0380728FAD8FDF70AFD8B
:1029000018F927303DF9474C392808D0822806D0DD
:102910003528EED1374A12789206EAD506E0354AD4
:102920001178890761D152781207E2D52923E0E7AF
:1029300030480121027814000C400A4245D1407809
:102940000842D6D02300D206D3D4E323D1E7294AC4
:1029500012785107CDD50023D206CAD4E333C8E795
:102960002449E2230A785007C3D44878012104009F
:10297000023B0C400842E5D0BBE71E4A517889076C
:10298000B7D512780023D206B3D4E733B1E7194A9A
:1029900012781107F6D4ACE71649E6230A78100737
:1029A000A7D4487802210400023B0C400842A0D181
:1029B0002300D2069DD4E7239BE70E4A11788906AF
:1029C00015D45278120700D493E7392391E7094AC6
:1029D0001278520600D48CE72A238AE7054A127837
:1029E000520600D485E7312383E7E02381E73523CE
:1029F0007FE7C046B831002030B5244C21784B0722
:102A00000DD514220240043A53425A411823034080
:102A1000083B5D426B419A4201D00C2358400B07A2
:102A20000DD514220240143A53425A411823034050
:102A3000183B5D426B419A4201D00C2358406478A8
:102A4000E3070DD511220240013A53425A4118239F
:102A50000340083B5D426B419A4201D00923584034
:102A6000A4070DD511220240113A53425A411823AE
:102A70000340183B5C4263419A4201D0092358400D
:102A8000C90601D51823984330BDC046B83100208F
:102A900000207047074B10B5C31801241F2B06D820
:102AA0004C79002C03D11F231840FDF7AFFD200007
:102AB00010BDC04620ADFFFF10B5002001F08FF81B
:102AC00010BD000010B5002001F012F8024BC01834
:102AD00043425841C0B210BD1D01FFFF10B5002098
:102AE000014901F060F810BDE3FE000010B50020C0
:102AF00001F075F80020024901F055F810BDC046FC
:102B0000FFFF000010B50400022000F0E5FF207078
:102B100010BD10B50178022001F039F810BD10B5D4
:102B2000032000F0D9FF10BD10B50100032001F013
:102B30002EF810BD10B50400042000F0D9FF20804D
:102B400010BD10B50188042001F02DF810BD10B59E
:102B50000400072000F0C0FF207010BD10B5017800
:102B6000072001F014F810BD10B50822172101F05C
:102B70003AF810BD10B50822172100F0EBFF10BD88
:102B800010B501000F2001F01AF810BD10B50100BA
:102B9000132001F014F810BD10B501000E2000F054
:102BA000F6FF10BD00207047014B18607047C0460B
:102BB00084070020704710B5FFF7FCFF10BD704779
:102BC00010B5FFF7FCFF10BD044B4000C25A0120B6
:102BD00088401040431E9841C0B27047C231002067
:102BE000014B4000185A7047C2310020704710B5A1
:102BF0001E2007F0A1F810BD10B5052009F046FA17
:102C00005B4B0400984200D8B1E05A490BF094FFA6
:102C1000594A0300944200D898E00722C0080138BE
:102C200013400F2800D991E0FDF792FB8800800047
:102C300078007000680060005800500048004000B4
:102C4000380030002800200018001000C046C046A0
:102C5000C046C046C046C046C046C046C046C04644
:102C6000C046C046C046C046C046C046C046C04634
:102C7000C046C046C046C046C046C046C046C04624
:102C8000C046C046C046C046C046C046C046C04614
:102C9000C046C046C046C046C046C046C046C04604
:102CA000C046C046C046C046C046C046C046C046F4
:102CB000C046C046C046C046C046C046C046C046E4
:102CC000C046C046C046C046C046C046C046C046D4
:102CD000C046C046C046C046C046C046C046C046C4
:102CE000C046C046C046C046C046C046C046C046B4
:102CF000C046C046C046C046C046C046C046C046A4
:102D0000C046C046C046C046C046C046C046C04693
:102D1000C046C046C046C046C046C046C046C04683
:102D2000C046C046C046C046C046C046C046C04673
:102D3000C046C046C046C046C046C046C046C04663
:102D4000C046C046C046C046C046C046581E0728BA
:102D50000DD8FDF7E9FA0B0A090807060504C04675
:102D6000C046C046C046C046C046C046C04610BD6C
:102D7000FF083D0000093D00FF50250210B5FFF798
:102D800036FF10BD10B572B6D023BE211B06490018
:102D90005A58002AFCD0BFF35F8F01228240084CB2
:102DA0009A62C200121905245460064A80008018F5
:102DB0004A224260BFF35F8F5B5062B610BDC046CF
:102DC0000040014000C0014070B50E20FFF7DAFF5F
:102DD0000D20FFF7D7FF0C20FFF7D4FF0B20FFF7E4
:102DE000D1FF054C054D2068431C01D0FFF7CAFFF9
:102DF0000434AC42F7D170BDB4ED0010DCED00102E
:102E0000F7B52A4B0D000093009A8B009B58019058
:102E10005A1C49D072B6D022BE201206400011586A
:102E20000029FCD0BFF35F8F01242600204FD9007A
:102E30009E40C919052756624F601E499B005B18CA
:102E4000402159609661BFF35F8F125062B6FFF761
:102E5000D3FE22000A210024944617480668002366
:102E6000771C07D0D0231B065B68F34066463340CF
:102E7000013B134001391C435200C9B2A4B292B2C3
:102E800004300029EAD1009AAB00D058431C01D08D
:102E9000FFF778FF21004B1E99412800C9B2FFF7C8
:102EA0006DFF019B6D00EC52F7BDC046DCED0010DC
:102EB0000040014000C00140B4ED001010B5FFF724
:102EC00083FF0822002107480AF002FF08220021A0
:102ED00005480AF0FDFE042000F038F8FFF76BFE0D
:102EE00010BDC046C2310020BA31002037B50822DB
:102EF000002168460AF0ECFE0024210001346846F7
:102F0000E4B2FFF77DFF042CF7D10E4C082269468E
:102F100020000AF0BDFE05006B1E9D41EDB20028A9
:102F200004D00822694620000AF02AFF2B00042260
:102F30000549200000F00CF80400FFF741FE2000D6
:102F40003EBDC046BA310020C231002070470000AB
:102F5000F7B516001C1E134F0090019107D00123F6
:102F60003B7005F037FF104B18600020FEBD3D7828
:102F7000002DFAD00C4B186805F0E1FE0428F4D9B6
:102F800076003200009901980AF082FE002805D0F0
:102F90003200009901980AF0F3FE2C000023200073
:102FA0003B70E3E7940F0020900F002010B5FFF76F
:102FB00007FB10BD10B505F0C8FE06F0CCF9FFF711
:102FC00081FA06F0CDF9FFF7BFFA06F0D7F906F05F
:102FD000DDF9FFF7EBFF06F0F7F906F097F9FFF7D9
:102FE0008CFAF4E710B545380AF08AFD05490AF075
:102FF00057F9011C8020C00509F05EFA02490AF069
:10300000D3FA10BD000040410000DC43E922030078
:1030100010B5D201904207D14B790120002B02D08C
:1030200000F01EFC002010BD174A904206D14B79DB
:103030000120002BF7D000F029FCF3E7134A90425F
:1030400008D14B790120002BEDD000F03FF900288A
:10305000F1D1E5E70E4A90420BD14B790120002BCC
:10306000E1D000F021FD002204210A4800F098FA86
:10307000D8E7094A01209342D5D14B79002BD2D011
:1030800000F018FDEFE7C046817400008274000074
:1030900094740000880700209574000010B5FFF7B5
:1030A000A1FF00F049FA10BD10B5FFF79BFF00F03B
:1030B0006BF910BD10B500F011F910BD204BF7B53C
:1030C0001B78002B3AD11F4B1D78002D36D11E4B9B
:1030D0001B78DB0732D51D4E3068011C09F064FFF8
:1030E00001900AF097FD0AF00BFDC02189050AF056
:1030F0005BFA174F174C39680AF056FAFE2189051A
:1031000009F052FF01990AF04FFAA0600AF082FD1F
:103110000AF0F6FCC02189050AF046FA39680AF07F
:1031200043FAFE21890509F03FFF31680AF03CFAB5
:103130002A0020610321200000F032FAF7BDC046CA
:10314000C22B0020C12B002044320020C4070020E5
:10315000C0070020A807002070B5064D0649286862
:103160000AF022FA0549041CFDF710F9002800D0E6
:103170002C6070BDC40700200938983F0080BB4414
:1031800070B5064D064928680AF08AF80549041CFE
:10319000FDF710F9002800D02C6070BDC407002096
:1031A0000938983F000082420122074810B5037891
:1031B0009907C90F8A43022152008B4313430370BE
:1031C000FFF730F910BDC04644320020022310B58D
:1031D0000348027813430370FFF724F910BDC0467B
:1031E00044320020022210B5034803789343037051
:1031F000FFF718F910BDC04644320020234B70B5CC
:1032000004000D0098420DD14B79002B01D0FFF73F
:10321000CBFF1F4B9C420DD16B79002B0AD0FFF7DF
:10322000AFFF07E01B4B984214D14B79002B01D024
:10323000FFF7CCFF184B1B78DB439B0708D16B795A
:10324000002B05D0154BE418012C01D9FFF736FFF0
:10325000012070BD124B98420CD14B79002BE9D064
:10326000FFF7C0FFE6E76B79002BE3D00D4B0E4A6A
:103270001A60DFE70D4B9842F5D00D4B9C42C8D148
:103280006B79002BD6D0FFF767FFD3E78A74000075
:103290008E7400008B74000044320020808BFFFF8E
:1032A0008C740000C40700200000DC438F74000011
:1032B0008D7400000723044810B502789A43134325
:1032C0000370FFF7AFF810BD44320020024B1878AE
:1032D000012318407047C0464432002070B50E4D9F
:1032E0002C78002C16D10D4B1C7000F0D3FB0C4B2E
:1032F0000C4A1C700C4B0D491C700D4B1C80082394
:10330000013BDBB21480516014810C32002BF7D1E9
:1033100001332B7070BDC046C8070020A10F0020EC
:10332000A00F0020E43100209F0F0020000080BF8C
:103330009C0F002070B5104C2378002B1AD10F4D34
:103340002800FFF76BF82B785B0701D4FFF7B2FF7B
:10335000002319000A4A0B480133DBB21180506088
:1033600011810C32082BF7D100F04AFB01232370A6
:10337000FFF7B4FF70BDC046950F00204432002017
:10338000E4310020000080BFF7B50021041CFCF7E9
:10339000FDFF002802D080231B06E4181D4B01937B
:1033A0001B78002B34D01C4B1B78002B01D1FFF76E
:1033B000C1FF1A4F07253E00B86D211CFCF7E0FF46
:1033C000002822D00C236B43F318072D17D10023BC
:1033D000134A063D1380134AB2655C363380124BA4
:1033E0001D70124B1C78013CE4B21C70002C0FD1F4
:1033F00000F050FB0E4B1D70019B1C7008E01A0082
:103400000C3291CA91C30135DFE70C3F013DD3D2A5
:10341000F7BDC0469F0F0020950F0020E43100202B
:1034200038320020000080BF9E0F0020A10F002036
:10343000C8070020F0B5364B85B01B78051C0291FB
:10344000DB0750D5334B1B78002B01D1FFF772FF00
:103450000021281CFCF79AFF002802D080231B06BD
:10346000ED182D4B1C7801932C4B661E0393731C97
:1034700028D10134E4B22A4E082C46D90824019BF5
:103480005422300027491C700AF010FC0122264B00
:10349000013C1A70254B1A7005F0DAFC0C236343CB
:1034A000F052F618029B7560338105F0D1FC204B79
:1034B000204C18802378002B15D000F0BFFA002391
:1034C000237010E00C2373431F00039B291CD85961
:1034D000FCF756FF002816D0114C3C19019B1B78B5
:1034E000013B9E4201DB05B0F0BD230027000C33F9
:1034F00007CB07C705F0ACFC029BA0812561A38226
:1035000001363C00EAE7013EB1E7019B1C70BDE7D4
:1035100044320020950F0020A10F0020E831002048
:10352000E4310020F03100209E0F00209F0F00208A
:10353000C20F0020C807002010B50249FFF77AFF2C
:1035400010BDC046FFFF000010B50C4B1B78834236
:1035500011D9013B181A0C2340B24343084A0021F9
:10356000D2185468201CFCF71BFF002803D1201C34
:1035700000F0A6FA10BD0020FCE7C046A10F002015
:10358000E431002010B5044B5843044B197849002E
:103590000BF0D2FA80B210BD5307000004080020DF
:1035A000F8B5214B04001B780D001700DB0702D48F
:1035B000FFF794FEF8BD0029FCD01C4B1B78002BB4
:1035C00001D1FFF7B7FE1A4B1B78002B01D0FFF794
:1035D00085FE0122174B184E1A700022174B6068A7
:1035E0001A70174B34601D80164B174D1F702A80C0
:1035F00009F0C2FC80B2FFF7C5FF27680100381C44
:10360000FFF718FF05F024FC104B2A881880336858
:10361000D2009B18586809F0AFFC80B2FFF7B2FFE8
:103620000B4B1880C6E7C04644320020950F00209F
:103630009F0F0020A00F0020E0310020980F0020F5
:10364000CC310020453200209A0F0020960F002038
:103650009C0F0020074B10B51B78DB0704D5002218
:1036600003210548FFF79CFF05F0F2FB034B188090
:1036700010BDC04644320020EC070020960F002009
:10368000F0B5644B644C1B7885B0002B02D12378D5
:10369000002B72D005F0DCFB237805000293002B91
:1036A0001ED1002302935B4B029C1B78002B0FD092
:1036B0005A4B1C78002C04D1594B1C78029B234395
:1036C0001C000026574D584B1B78B34200DD8EE09E
:1036D000564A1378002B51D000211C0011704DE088
:1036E000534C208805F024FB524E33888342D8D8AF
:1036F000208805F01DFB33884F4E2580C01A358881
:1037000083B200936B1C338005F0A2FB4B4B3488D3
:1037100018804B4B1B8803939C4205D3494B1B7865
:10372000002B28D000243480474B484F1B6801935E
:103730003B78002B25D10199E2005158019AEB000A
:103740009858FCF71DFE00281BD00123404C3B700D
:103750002178404899400BF0EFF981B20020FFF743
:1037600069FE21783B48358049000BF0E5F984B2C9
:10377000304B1C8097E7FFF7B1FD0024200005B017
:10378000F0BD0023019A3B70E300D318586809F09C
:10379000F3FB651C80B2FFF7F5FEADB2019B039F02
:1037A000ED005D19013F009A2300824218D90134CF
:1037B000A4B29F4207DC0124019ADB002100985843
:1037C000FFF738FED4E7009B3480181A83B268688C
:1037D000009309F0D1FB80B2FFF7D4FE0835E2E791
:1037E000009A01248242E7D2801A84B2E4E72B894E
:1037F000194A013B9BB2934208D8288805F098FAF1
:103800002B89834202D86868FFF7BEFD01360C356C
:1038100059E7C0469F0F0020A00F0020C40F0020D2
:10382000C50F0020E4310020A10F00209E0F0020D2
:10383000960F00209C0F00209A0F0020C20F00203E
:10384000CC31002045320020E0310020980F0020CC
:1038500004080020A60E0000FDFF000070470000D5
:103860000123074810B5027813430370FEF7DAFD11
:10387000FFF7F4FF002202210248FFF791FE10BD7E
:1038800044320020DC0700207047000010B5002201
:1038900002210948FFF784FEFFF7F6FF074806F00C
:1038A00046FDFFF71BFD0122054803789343037093
:1038B000FEF7B8FD10BDC046CC070020A086010071
:1038C0004432002072B6D021BE22090652008B5825
:1038D000002BFCD0BFF35F8F7047BFF35F8FD02307
:1038E000BE221B0652009B5062B67047034810B5BB
:1038F0000368002B01D006F0D9FA10BDA40F0020F8
:103900001A4B70B500211860041CFCF749FD002813
:1039100029D1174B18680AF037F9211C09F0C0FCAF
:1039200009F02AFB134B84B21A7864239A1A534382
:1039300098B2604310490BF027F985B2FFF7C2FF38
:1039400014220E48017E43694A439B181C610123DF
:10395000C268002113432A000481C36007F076FE89
:10396000FFF7BBFF70BD00250224E7E7BC0F002076
:10397000080800202408002010270000043400203C
:1039800010B5FFF77DFE002804D00020FFF7DCFD16
:10399000FFF7B6FFFFF796FFFFF7A8FFFA21002316
:1039A000034A0448890106F06BFAFFF796FF10BD41
:1039B00081390010A40F002010B5044C200007F03E
:1039C0003CF82000024907F025F810BD043400201F
:1039D0000808002010B5084C200007F02EF8200041
:1039E000064907F017F800222000110007F034F80C
:1039F000200007F022F810BD043400200808002041
:103A000010B50949094807F005F8D02380221B06A4
:103A1000D2005A620422064B5A65064B6E32DA62B5
:103A20000022054B1A6010BD080800200434002055
:103A30000040014000C00140A40F002070B5FFF716
:103A4000C9FFFFF7B9FF0F4B1B78002B03D10E4BBB
:103A50001B78002B14D0FFF735FF0C4C2568FFF7BF
:103A60003CFF002D0CD1FFF72DFFFFF73FFFFA21A0
:103A70002B002000064A890106F002FAFFF72DFF0D
:103A800070BDC0469F0F0020A00F0020A40F002093
:103A90008139001010B5FFF79DFFFFF713FFFFF707
:103AA00025FFFFF71AFF10BD0022014B1A70704767
:103AB000C00F00200022014B1A707047C00F002079
:103AC000034B1B78002B01D1024A13707047C0468C
:103AD000C00F0020C50F002013B56B46DC1D00236E
:103AE000010001222000237000F07DF8207816BD2F
:103AF00013B56B469C1D0023010002222000238089
:103B000000F071F8208816BD002307B5010001A858
:103B10000422019300F067F801980EBD07B56A46CC
:103B20000300D01D01700122190000F063F807BDE9
:103B300007B56A460300901D01800222190000F0BB
:103B400059F807BD07B504220191010001A800F052
:103B500051F807BDF8B51400D31D6A46DB08DB0039
:103B6000D31A00AF9D460500220068460E0000F003
:103B70003AF82200694628000AF08AF8002804D0A2
:103B800022003100280000F035F8BD46F8BD70B5C0
:103B90000D000400FFF7A0FFA84203D02900200079
:103BA000FFF7BCFF70BD70B50D000400FFF7A0FF6C
:103BB000A84203D029002000FFF7BAFF70BD70B5FE
:103BC0000D000400FFF7A0FFA84203D02900200049
:103BD000FFF7B8FF70BD10B500F07AF910BD10B551
:103BE00000F048F810BD030010B50800190000F0FF
:103BF00059F810BD030010B50800190000F0BEF818
:103C000010BD0000802210B5054C0021200052019B
:103C10000AF05EF88022034B5201A35010BDC0464B
:103C2000C80F00200810000070B5064D064C022099
:103C30002B5D002B05D100F021FA002801D00120D6
:103C4000285570BDC80F00200410000070B5074D46
:103C5000074C02202B5D002B06D000F041FA002813
:103C600002D0002301202B5570BDC046C80F002094
:103C70000410000070B5FFF7D7FF0400051E03D144
:103C8000FFF7E4FF200070BD00F0FAF90400FFF731
:103C9000B9FF012DF6D1FFF7D9FF431E984104402B
:103CA000F0E70000030070B580249D18080064014F
:103CB0000021A54204D8034959180AF061F80121EE
:103CC000080070BDC80F002073B500F0D9F90024BA
:103CD000A04224D0FFF7A8FF8022124D0600290041
:103CE0002000120100F0E0F9A04210D080210E4A1D
:103CF0000E4B2800490101F079FF009001918020CE
:103D000004226946400100F0CFF94400E4B2012EDC
:103D100001D1FFF79BFF8023054A5B01EA50200099
:103D200076BDC046C80F002025232284E49CF2CB38
:103D30000810000080218022054B49015B580120BA
:103D400010B59201934201D3FFF7BEFF10BDC046EC
:103D5000C80F002070B58024074D64010100285968
:103D600000F0B4F903000020834204D02B59023341
:103D70002B51FFF7DFFF70BDC80F00208023F0B587
:103D8000160087B08218050001915B019A4215D890
:103D90004E4F3200C7193900019809F079FF01240C
:103DA00000280CD032000199380009F0E9FFFFF734
:103DB0003BFF039000282CD1FFF748FF0024200090
:103DC00007B0F0BD012E31D0EB072FD48023DB01EB
:103DD0009D423ED2019A019B50781B780002184305
:103DE000012823D8434258411F234042984360385A
:103DF0006B0A18436B08DBB21B02C0B21843FFF713
:103E0000A9FF0400012809D1019B023E02350233BB
:103E10000193002ED6D1FFF78DFF0400039B012BE9
:103E2000CDD1FFF713FF0028C8D0C8E73F2D10D829
:103E30004020019B28431B78C0B21B021843FFF7A8
:103E400089FF04000128E9D1019B013E01350133BE
:103E5000DEE70296052E01D90523029300230024F4
:103E60000722049305942B0C1340029A04AFD2004E
:103E700013430199029A3B70F81C2B0A7B70BD70AA
:103E800009F07EFF3888FFF765FF04000128C5D1DF
:103E90007888FFF75FFF04000128BFD1012E0DD005
:103EA000B888FFF757FF04000128B7D1032E05D9C2
:103EB000F888FFF74FFF04000128AFD1029A029B58
:103EC0009446F61AED18019B6344A1E7C80F002041
:103ED000F0B589B0FFF796FE00F0C2F8002805D1D2
:103EE000FFF790FE0024200009B0F0BD8022584C5E
:103EF00000202100120100F0F5F8002831D08021C7
:103F0000544B554A2000490101F070FE0600802004
:103F10000D00042206A9400100F0E4F8069BB3421C
:103F200002D1079BAB4201D0FFF76CFE4B4E04ABB6
:103F30009D1D2900300000F0E5F800285CD02B889A
:103F4000002B58D004AA1381DAB2B51C91090129BB
:103F50005AD002295DD080277F01002904D0E55185
:103F600064E0FFF74FFEBBE70A2104AB2800C91845
:103F700000F0C8F80028F2D004AB1A7AE02311044C
:103F8000DB021940092304A81B1818785B78351D3B
:103F90001B0203435BBA9BB21943D3080393072365
:103FA0000191D1081940019B02915B18BB42D6D800
:103FB00030231A4206D0280007A900F0A3F80028F1
:103FC000CDD0B51D039B5B0708D50E2104AB28009F
:103FD000C91800F097F8002836D002350B21019B54
:103FE000029AE01804ABC91809F0CAFE80232E001B
:103FF0009B019D429BD3012080235B01E65000285A
:1040000014D0FFF797FE13E03F211B0A0A40A35488
:10401000ECE7F82051028001014080201B0A5B0080
:104020000B43591C4001814208D32550FFF74CFE39
:10403000041E00D057E7FFF7E5FD54E79206D20FC4
:10404000E25400236354D1E780235B01E550EDE7A0
:10405000C80F0020E49CF2CB252322840810000026
:10406000802210B503495200034809F089FE01205F
:1040700010BDC046000000105420002001207047F1
:1040800010B5EFF3108372B68021FF20054C890133
:10409000400323600AF058FD236883F31088012051
:1040A00010BDC0465020002010B5EFF3108372B64B
:1040B000054C2360FF235B03C0180AF04DFD236805
:1040C00083F31088012010BD5020002007B56B46F7
:1040D000D980063301221900FFF7E6FF01200EBD4B
:1040E0000120704710B55200054C1218091A904271
:1040F00001D1012010BD035BDB430B520230F6E718
:1041000000E01F1010B50122FFF7ECFF012010BDE9
:104110004B7910B50400002B01D1012010BDFDF733
:1041200085FF2223214A0340A0180A28F5D8FCF76E
:10413000FBF8060A0F14191E23282D32370000F051
:1041400099FC0020EAE7002B04D000F025FDF8E7F9
:10415000002BFAD000F00AFDF3E7002B04D000F0AA
:1041600069FDEEE7002BFAD000F050FDE9E7002BE7
:1041700004D000F08FFDE4E7002BFAD000F072FDD0
:10418000DFE7002B04D000F0B5FDDAE7002BFAD012
:1041900000F098FDD5E7002B04D000F0E3FDD0E758
:1041A000002BFAD000F0CAFDCBE7C046E087FFFF46
:1041B00070B54C790500002C02D00124200070BDA0
:1041C000FDF734FF2223244A0340A8180C28F4D812
:1041D000FCF7AAF8070A0D10151A1F24292E3338E8
:1041E0003D0000F061FCE9E700F076FCE6E700F056
:1041F00041FCE3E7002B04D000F0CEFCDEE7002B0F
:10420000FAD000F0B3FCD9E7002B04D000F012FD87
:10421000D4E7002BFAD000F0F9FCCFE7002B04D054
:1042200000F038FDCAE7002BFAD000F01BFDC5E70F
:10423000002B04D000F05EFDC0E7002BFAD000F0A8
:1042400041FDBBE7002B04D000F08CFDB6E7002B4E
:10425000FAD000F073FDB1E7C087FFFF7FB5050A14
:10426000040CEDB20190E4B2002D10D1002901D070
:10427000284B1C5D23002100FF2213401800114031
:104280000902144024040843204304B070BD01AB6C
:104290001E78002901D01F4B1C5D0620FF217043B2
:1042A0000AF072FC55235B4243437600F318032661
:1042B0005E43FF21F6B233008E1B4A1B6B437543EE
:1042C0001B122D12CB1A491B624363436143121226
:1042D0001B120912D2B2DBB2C9B2062816D8FCF7FB
:1042E00023F80406090C1015040023000C0021001B
:1042F0001400C1E713000A00F9E7190013002200B7
:10430000F4E7230014001A000B00F0E71900230063
:104310001400F0E704EE00101FB50121FFF79EFF27
:10432000FF210200030A0B40000C08400A401B0258
:104330001A43030402481040184305B000BDC046AC
:10434000FFFF00FF010030B5C0B2012916D9F723E5
:10435000FF225B01994202D84A090832D2B20124F5
:10436000A018401005004543ADB2C3B2A94206D221
:10437000013BDAB29442F3D9013CE0B230BDFF28F0
:10438000FCD00133DCB2F5E7054A064B11884B43FC
:1043900005495B189BB2180AC018C0B21380704759
:1043A0002E08002005080000193600000F214306E2
:1043B00015D40B000200034092060B49920F5200E5
:1043C0005218517812784B431B119B1840B2DBB244
:1043D000002801DA5B42DBB2803BD8B27047C343AE
:1043E000DAB20B400133E7E7ECED00101FB5040C27
:1043F00001905008FFF7DAFF0200803AE4B2D3B22E
:10440000120603D580235B421B1ADBB201AA128875
:10441000FF2110005B000134DBB26343120A1B1260
:10442000084012020B401B041043184304B010BD97
:1044300084B001A901908B780A7008881B04184386
:1044400004B07047024B1A78104318707047C0468A
:10445000582100201FB5FFF75FFFFF210200030A6C
:104460000B40000C08400A401B021A430304024898
:104470001040184305B000BDFFFF00FF0A22424371
:10448000F0B5284B85B09B185B5C0D0000270190B0
:104490000293FF2B1ED105B0F0BD039B9B5DFF2B4C
:1044A00011D00199FAB291421DD1F2B295421AD1BE
:1044B0000A224A431C4B9B185A5D2032111CFF2ACA
:1044C00000D9FF215955013601340A2EE5D10137B3
:1044D000042FE0D00A237B43134C124A1C199B186B
:1044E00000260393D9E702990E4A14311433490088
:1044F0005B00885C9B5CC01A404380B2FFF722FFE0
:104500002828E0D82823181A021C80B2102800D9C5
:10451000102223789B181A1C9BB2FF2B00D9FF2274
:104520002270D0E7380700206021002010B5034832
:10453000FDF780FF0022024B1A7010BD48320020A8
:1045400058210020042310B5084C03220849601CA0
:10455000237009F015FC812320005B42A380FDF746
:1045600069FF0022034B1A7010BDC046483200207C
:10457000B8EB00105821002010B5024BDB689847BB
:1045800010BDC046F4ED001070470000F8B51500EE
:104590001E000C00044B5F68FFF7F6FF33002A0093
:1045A0002100B847F8BDC046F4ED001013B5174A16
:1045B0000B0012784178114225D01548154A01792F
:1045C00012688908023192B24A4381784478C078EF
:1045D0000902214312120004D2B208430021984775
:1045E00001AB187002040002120E000E5A7098708F
:1045F0000198FFF72FFF02040302C1B21B0E002037
:10460000120EFFF7C3FF002016BDC0466207002050
:104610004832002050320020104A114B13B559780F
:104620005378040090781B020B4300041843FFF7F3
:1046300011FF030401A91B0E4B7003021B0E8B70AC
:10464000084B08701B7862781A4205D08B784A783C
:10465000C1B20020FFF79AFF002016BD49320020AA
:10466000483200206207002007B50A4A53781178C3
:1046700090781B020B4300041843FFF7EBFE020483
:104680000302C1B21B0E0020120EFFF77FFF0020B5
:104690000EBDC0469633002010B5024B9B6898476C
:1046A00010BDC046F4ED0010F0B587B003908378DC
:1046B000002B09D0002211001000FFF7EDFF282287
:1046C00000213B4809F004FB039B1B78002B0ED113
:1046D000384C208804F02CFB182383429B41364A37
:1046E0005B421370182802D904F0B2FB2080002727
:1046F0000A2302930023314D2D4C7D193C1901935F
:104700002A78002A43D12E4B03991B784978194205
:1047100039D02678310055390B1C002900DA131CDA
:10472000562231005242D31A04AA1370254BAA31E3
:104730009B7853700B1CFF2900D9FF2303214B43A7
:1047400020490233C978DBB201314B431B1293700D
:104750000498FFF77FFE0204030205A9120E1B0E48
:1047600008704A708B70D2B2DBB2C1B22878FFF702
:104770000DFF114B1B78002B05D0013E331C002E82
:1047800000DA00232370019B0133DBB20193029B0B
:104790000135013BDBB202930134002BB0D11E2F57
:1047A00003D0019B0A37002BA2D0002007B0F0BD38
:1047B000602100208A210020882100203807002065
:1047C000620700204832002070B504000D0016007A
:1047D000FDF78AFE00280BD0002E09D00322054BDE
:1047E0001B789343142B03D129002000FFF746FECA
:1047F00070BDC0464832002001207047012070473C
:1048000010B5FFF7FBFF10BD10B5FFF7F5FFFFF781
:10481000F7FF10BD012070470120704710B5FFF76A
:10482000FBFF10BD10B501210020FFF7F3FF0121B0
:104830000020FFF7F3FF10BDF0B585B004F0CAFA11
:10484000694A6A4D10602A780321160003000E4061
:104850000A4200D09608664F3878032800D9A6E0AF
:10486000FBF762FD020AA7B10021624A1170624A99
:10487000136001233B709AE0604B1A780123B24227
:1048800008D12B785E4A9B0712789B0F9B1A5A1E01
:104890009341DBB2574CA3706B7962789A4205D092
:1048A0000022110010006370FFF7F6FE062E0ED8EE
:1048B0003000FBF739FD04181C21236D7100A3782B
:1048C000002B04D0002211001000FFF7E5FE237832
:1048D0000133237002233B70A378002B60D1002E9C
:1048E00060D10323C6E72000FFF796FEEFE74549B6
:1048F0002000FFF75BFEEAE74349F9E723780093DE
:10490000002B13D1414B1868019304F018FAA0232F
:104910002A795B009B1A984208D9FFF735FD3C4B7A
:10492000009A1A8004F056FA019B1860384B0093E5
:104930001B880193002BCAD1364B62781B781A4230
:10494000C5D0FFF721FD800715D5019A02AB1A806B
:10495000130002AA93700298FFF77CFD0204030281
:10496000C1B200981B0E120E0088FFF70FFE022343
:10497000009A1380ABE7FFF707FD02AB1870FFF753
:1049800003FDC001001202AB7F305870EB78E0E706
:104990002000FFF789FE9AE72000FFF765FE96E703
:1049A000002E04D0FFF730FF2000FFF73BFF05B0DB
:1049B000F0BD124B124A1E702B789B079B0F137091
:1049C000FFF7DAFD8DE7144C2378002B04D0280084
:1049D000FDF730FD00232370074B186804F0AFF992
:1049E0000F28E4D9002345E75C210020483200204D
:1049F0002808002029080020503200202C08002020
:104A00002D080020ED4300103144001054210020F7
:104A1000260800206207002058210020094B70B5AD
:104A20001B6898470123084D084C28002370FDF7A8
:104A3000FDFC002323702B78032B01D8FFF782FDA8
:104A400070BDC046F4ED001048320020582100200F
:104A500070470000012310B5044A11784B401370D1
:104A60000022034B1A70FFF7EDFC10BD4832002006
:104A70002808002010B50120FFF7ECFF10BD000052
:104A8000074B0322197808001040114201D1054A52
:104A90001070032219789143023A0A431A70704742
:104AA000483200202808002010B5FFF7E9FF012058
:104AB000FFF7C8FC10BD0000054B1A78920702D022
:104AC0000021044A117003211A788A431A70704732
:104AD000483200202808002010B5FFF7EDFF012024
:104AE000FFF7B0FC10BD0000024B18788007800F64
:104AF0007047C04648320020020008000C4910B53B
:104B00000B789B0712D00123002A04D005339A4268
:104B100001D83933134003240A789B002240134301
:104B200000220B70034B1A70FFF78CFC10BDC046BF
:104B3000483200202808002010B50021FFF7DCFFD4
:104B400010BD0000014B18788008704748320020E3
:104B5000054B0100187810B580080130062800D9EF
:104B60000120FFF7C9FF10BD4832002010B5012019
:104B7000FFF7EEFF10BD0000064B0100187810B5DE
:104B800080080138C0B2002800D10630FFF7B4FF1A
:104B900010BDC0464832002010B50120FFF7ECFFE1
:104BA00010BD000070B5064C0500180023789B0767
:104BB00004D06570A170E270FFF744FC70BDC04680
:104BC0004832002010B50023FFF7ECFF10BD0000B5
:104BD000014B58787047C04648320020014B987806
:104BE0007047C04648320020014BD8787047C04615
:104BF0004832002010B503000348C278817840781D
:104C00000830FFF7CFFF10BD4832002010B501205B
:104C1000FFF7F0FF10BD000010B503000448C27894
:104C200081784078083880B2FFF7BCFF10BDC046DD
:104C30004832002010B50120FFF7EEFF10BD000044
:104C400010B5030006488478C2781034211CFF2C6C
:104C500000D9FF214078C9B2FFF7A4FF10BDC046BC
:104C60004832002010B50120FFF7EAFF10BD000018
:104C700010B5030006488478C278103C211C002C33
:104C800000DA00214078C9B2FFF78CFF10BDC046A2
:104C90004832002010B50120FFF7EAFF10BD0000E8
:104CA00010B503000648C17810310A1CFF2900D94D
:104CB000FF228178D2B24078FFF774FF10BDC04662
:104CC0004832002010B50120FFF7EAFF10BD0000B8
:104CD00010B503000648C17810390A1C002900DA13
:104CE00000228178D2B24078FFF75CFF10BDC04649
:104CF0004832002010B50120FFF7EAFF10BD000088
:104D000010B5034B18710020FFF79CFB10BDC04687
:104D100048320020014B18797047C04648320020C5
:104D200010B5054A13791033191CFF2B00D9FF2148
:104D30001171FFF787FB10BD4832002010B501202C
:104D4000FFF7EEFF10BD000010B5054A1379103BC8
:104D5000191C002B00DA00211171FFF773FB10BD45
:104D60004832002010B50120FFF7EEFF10BD10B54E
:104D700003F0DCFE10BD0000002210B5064B074C0E
:104D8000074808499A6101329C60D86019611C3358
:104D9000202AF7D110BDC046102700205154001022
:104DA000B1530010CD52001010B50A4304005B0748
:104DB00009D50F2300091C40044308091940014389
:104DC00010091A4002430B00002023408B4203D1FC
:104DD000944363425C41E0B210BD0000A022F0B5F4
:104DE000124E002185B05200300008F071FFC02241
:104DF0000F4C00212000520008F06AFF002501AF8F
:104E000039002660E8B201F08CFF002806D10822A4
:104E10003900300008F0B4FF3B89A38001350A3621
:104E20000C34202DEBD105B0F0BDC046543200202B
:104E300090250020F823DB01984205D1034B1B6825
:104E40005A1E93415B4218407047C046C42A002056
:104E500080239B01984202D2FF2809D87047C022C4
:104E6000084B9201C3189BB29342F7D2C0B2F5E748
:104E7000030AC20401D51B01DBB20A7813430B708D
:104E8000F4E7C04600E0FFFF73B500260F4C69460B
:104E9000F0B201F056FF6D46011E11D1082220002C
:104EA00008F016FF211D2888FFF7D2FF20806888B0
:104EB000611DFFF7CDFF60802B79A3716B79E371E2
:104EC00001360834202EE2D173BDC0468C2100206B
:104ED000F0B500260227244C85B001AD2900F0B2C0
:104EE00001F027FF011E38D120001022083008F001
:104EF000EFFE09222B882380AB79A370AB88E37087
:104F0000EB7923712B7A63716B88E380AA566B7AF5
:104F1000002A01DB154A62610122134200D022728D
:104F20003B4202D0227A3A4322720422134202D038
:104F3000217A0A4322720822134202D0217A0A43BC
:104F400022721022134202D0217A0A4322722022B6
:104F5000134202D0237A1A43227201361834202ECB
:104F6000BBD105B0F0BDC0468C2200208C250020AE
:104F700010B5FFF701FFFFF731FFFFF7A9FFFFF7BC
:104F800083FF10BDF0B5040089B020291ED1407800
:104F90000D281BD8FBF7C8F9071C241A1A394B56E1
:104FA000898D96A0A9AC0822A54905A808F0E8FEBD
:104FB0001F220021601C08F08BFE062308222370AC
:104FC000201D05A908F0DCFE0123237309B0F0BD04
:104FD00074232370733B63700023A370E370F5E7C1
:104FE000E178A37809021943BA2349015B00994289
:104FF000ECD20A0020329A4200D91A002000914BCC
:10500000521AC91808F0BCFEE0E71F22FF21601CFD
:1050100008F05EFE8C4B1B6823708C4B1B68637022
:105020000023A370E370237109336371CEE701227B
:10503000864B1A60864B31321A6003F009FF854BAC
:105040001880C3E7814E804F3368814D002B22D0FA
:1050500000210800FDF7B8FD092102900020FDF7AE
:10506000B3FD7C4B03901888019303F061FE642824
:1050700018D9029B002B15D0039B002B12D003F0F4
:10508000E7FE019B18802B68013B2B60002B02D1AF
:10509000336001333B603B682370336863702B6877
:1050A000A37093E732232B60F5E70022664B1A606A
:1050B0008CE7E078A378000220222100184300F05A
:1050C000B7FC83E7E078A37800021F22611C184335
:1050D00000F0D4FC207079E7E078A37800021C226D
:1050E000211D184300F0E4FCF4E700F079FC6DE7C3
:1050F000A078082800D969E7FBF716F905122140C6
:105100004B5E697C8A001F220021601C08F0E0FDD4
:10511000202323706370A370E3701D3BE37755E792
:10512000E57800210A2205A808F0D2FD280005A98B
:1051300001F0EFFD0A222070601C05A962E705ADB1
:105140000A22211D2800E67808F01AFE2888FFF7B9
:1051500071FE28806888FFF76DFE6880A888FFF7D9
:1051600069FEA880E888FFF765FE2900E880300026
:1051700001F0D3FD2070FFF7FFFD27E7E5780A2255
:10518000002105A808F0A4FD280005A901F0C9FD2B
:10519000D0E705AD0A22211D2800E67808F0F0FDD1
:1051A0002889FFF747FE29002881300001F0BDFD66
:1051B0002070FFF713FE09E7E5780A22002105A811
:1051C00008F086FD280005A901F0B3FDB2E705ADA2
:1051D0000A22211D2800E67808F0D2FD6888FFF732
:1051E00029FE29006880300001F0A7FD2070FFF73C
:1051F0006FFEEBE6E5780622002105A808F068FDC1
:10520000280005A901F09DFD06222070601C94E78E
:1052100005AD0622211D2800E67808F0B1FD28889A
:10522000FFF708FE28806888FFF704FE29006880E1
:10523000300001F08AFD2070FFF726FEC6E6C0466A
:1052400004EF00103DF00010C42A0020C02A002006
:10525000BC2A0020BA2A00200C4B13B518808023EA
:105260009B01984202D2FBF721F913BD6C46084B13
:10527000238003F0EDFD0123034363800223FF330A
:10528000A38000980199FBF739FBEEE794330020E7
:10529000F0F0FFFF0B4B13B5188080239B01984261
:1052A00002D2FBF719F913BD6C46074B238003F0BC
:1052B000CFFD01231843A380608000980199FBF77C
:1052C0001DFBF0E794330020F0F0FFFF70B5214C98
:1052D00006000D00C8B2210001F01BFD011E38D1EF
:1052E0001D4BD88B00281CD000231C4A09F044FC1D
:1052F00000231B4A80185941FA220023920009F02A
:1053000053FC05F014F80022164BEDB2585DB27054
:1053100001385A5504281CD8FBF706F818050B0D60
:1053200018000120EDE7608800280FD0FFF7B2FFDA
:105330000FE0A088F8E7E0880028F7D1238860888C
:10534000002B04D00028F1D11800EFE720880028B6
:10535000ECD170BD902A00209A33002040420F000B
:10536000E70300009A2A002010B50400FFF774FF3D
:105370000C4BD88B002813D000230B4A002109F0D6
:10538000FBFB0023094A80185941FA2200239200AE
:1053900009F00AFC04F0CBFF2000FFF77BFF10BDF3
:1053A0000120F7E79A33002040420F00E703000096
:1053B00070B5254C06000D00C8B2210001F0A9FC13
:1053C00000283AD1B278214BEDB2012A0DD1727981
:1053D000500733D4D20731D502225A5560880028AD
:1053E00010D12088002828D00CE0022A23D10420E4
:1053F0007279024217D1D20707D403225A55A088E6
:10540000002812D0FFF728FF17E05855E088002841
:10541000F8D12088002814D0FFF7A6FF6088002864
:10542000F0D12088EEE705225A552088002804D0C4
:10543000FFF79AFFF5E706225A5570BD01225A552B
:10544000CFE76088CEE7C046902A00209A2A002045
:1054500070B50D4C0500C8B2210001F05AFC0028BF
:1054600011D12488002C0ED0AB78032B09D1200059
:10547000FFF77AFF2000FFF777FF2000FFF774FFA8
:1054800001E0032BF9D870BD902A00207FB50A4BAC
:105490000400C3180D00FF2B09D801AE3100C0B2C3
:1054A00001F037FC002802D1308904B070BD29001A
:1054B000200000F01DFBF8E700A9FFFF2020704747
:1054C000030000201F2B03D81C305843014BC01889
:1054D0007047C0461027002070B54B79002B1CD1B7
:1054E000164BC01884B2FF2C17D8154DE0B2290016
:1054F00001F00FFC002810D11C2363431148C3188E
:105500009B78012B0BD12B88002B06D06B88002BAE
:1055100003D0AB88EA88134306D0012070BD022B6C
:10552000FBD1AB88002BF8D01C2301226343C018A9
:1055300043799343437103F047F8EEE700A9FFFF77
:10554000902A002010270020202070470300002010
:105550001F2B03D818305843014BC0187047C04662
:105560008C220020F0B585B002ABD9710733190049
:10557000FFF76EFC012701242C4B2D4D0190029367
:105580007F420823EE791E4249D02B88019A93422C
:1055900015D12B79AA79009302ABD8790099330001
:1055A000FFF702FC00280AD00098FBF75AF940B236
:1055B000B84204DD07006C796B8824021C436B88B9
:1055C000019A934217D1B30715D56B79AA79009345
:1055D00002ABD87900993300FFF7E6FB00280AD028
:1055E0000098FBF73EF940B2874204DA07002C79B5
:1055F0002B8824021C4301231E4210D07B1C0ED199
:10560000012C0CD102ABD87900213300AA79FFF725
:10561000CBFB002803D06C796B8824021C43029BCF
:1056200008359D42ADD1200005B0F0BD8C22002090
:105630008C210020F0B5040085B020290ED14078DF
:10564000403804280AD8FAF76FFE030B2F565B0088
:105650000123A3700023E370FF33237105B0F0BD75
:10566000FFF742FA00281DD0FFF76CFA354A0023F5
:1056700011005588854211D19B00CB5AA3701B0A9B
:10568000E370FFF747FB2071FFF7A2FA6071FFF7A5
:10569000A5FAA071FFF7A8FAE071DFE70133043241
:1056A000072BE6D10023E9E71E25023403AF0222CF
:1056B0002100380008F064FB1E22FF21200008F0C2
:1056C00007FB214B1F4E019302AA911D33883A8894
:1056D0000B809A4208D2012D0BD92000022208F03B
:1056E0004FFB023DEDB20234019B04369E42EBD1EA
:1056F000B4E70025F8E70123A3700023E370ADE7CA
:10570000A278002AAAD11149114B0978A170190079
:1057100029310978E17019002A3109782171FF21B6
:10572000A17161710021585C002802D16271A171E0
:1057300094E701310A29F6D101320A33042AF1D162
:105740008CE7C046B2F10010CEF1001060070020D7
:105750003807002070B50400202904D14378412B7C
:1057600002D0422B23D070BDC57883782D021D4313
:105770000AD1FFF7A1F92079FFF7C2FAE279A179FE
:105780006079FFF71FFAEEE7FFF77AF90023124A74
:1057900099008818515AA94207D00133072BF7D135
:1057A0000020C0B2FFF7C8F9E5E74088F9E7032316
:1057B000027953431D2BD6DC002AD4D0C3788278DB
:1057C0001B021343CFD1054B42791A7082795A706C
:1057D000C2799A70C7E7C046B2F100109633002034
:1057E00010B5FEF7A3FE10BD13B50800032A24D997
:1057F0000623134A11785278CC070B40E40F234359
:1058000008240C40234310240C40234320240C4044
:10581000234340240C40C909C90123430B43D1074A
:105820009207C90DD20F0B435202134301A9042260
:10583000019308F0A5FA002016BD01204042FBE7C5
:10584000B83100200300080011009A7810B58A4290
:1058500004D8596808F094FA002010BD0120404295
:10586000FBE773B50024C6780D000194A24202D173
:105870000120404276BD042201A9FFF7E3FF013079
:10588000F6D00122B240019B200013405A1E9341E2
:105890002B70EFE707B5032A36D9042201A808F0D8
:1058A0006FFAFBF751F90121019A19489307DB0FB1
:1058B00011405B000B435107C90F89000B431107CF
:1058C000C90FC9000B43D106C90F09010B4391064B
:1058D000C90F49010B435106C90F89010B4311063A
:1058E000C90FC9010B43D105C90F92050902D20F97
:1058F0000B43520213430288920A9202134303801D
:10590000FCF788FD00200EBD01204042FBE7C046A9
:10591000B831002010B5024B188800F06DFC10BDA6
:105920009A33002070B50024A5B2280001F0E9F9EF
:10593000054B195D884202D0280001F0E6F90134D8
:10594000282CF1D170BDC0469A33002010B5837861
:10595000934207D81A00406808F012FAFFF7E2FFF6
:10596000002010BD01204042FBE7002373B5040076
:10597000C6780D0001939A4202D10120404276BDC3
:10598000042201A9FFF75EFF0130F6D001210A00D1
:10599000B240019B200093432A780A40B24001A9FB
:1059A000134304220193FFF7D1FFE8E770B5002409
:1059B000A0B201F0A6F9084B18550134282CF7D1F4
:1059C0000024064D2B69002B00D098470134143574
:1059D000112CF7D170BDC0469A330020D0F10010D1
:1059E000AF22104B10B51A800F4A32215A80C822BC
:1059F00050209A841A830022D98218842D39D81C09
:105A00005A839983DA83C177DA84FFF78BFFFBF738
:105A10009BF880230548DB000380FCF7FBFCFFF7C5
:105A2000C5FF10BD9A33002088130000B831002054
:105A3000F0B50D0085B00190FF212800160008F098
:105A400047F900200B4B0C4C0093871CB7420FD832
:105A500002AA911D2388019A0B80934204D9022245
:105A6000281808F08DF93800009B14349C42ECD1C2
:105A700005B0F0BD24F30010D0F10010F8B504001B
:105A800000231427094D3E005E437019AE5BA64209
:105A900005D18368002B06D10120404204E0013388
:105AA000112BF0D1F8E79847F8BDC046D0F10010AF
:105AB000F8B5002314270D4C3E005E433519A65B54
:105AC000864205D1EB68002B06D1012464420BE02D
:105AD0000133112BF0D1F8E728009847041E03D1B9
